:1000000045C0000053C0000051C000004FC00000B8
:100010004DC000004BC0000049C0000047C00000B8
:1000200045C0000043C0000041C000003FC00000C8
:100030003DC000003BC0000039C0000037C00000D8
:1000400035C0000033C0000032C000002FC00000E7
:100050002DC000002BC0000029C0000027C00000F8
:1000600025C0000023C0000021C000001FC0000008
:100070001DC000001BC0000019C0000017C0000018
:1000800015C0000013C0000011C0000011241FBEE5
:10009000CFEFD0E1DEBFCDBF21E0A0E0B1E001C0F5
:1000A0001D92A230B207E1F741D04BC0A9CF1F92F9
:1000B0000F920FB60F9211248F9381E0809301016C
:1000C0008CB1809300018F910F900FBE0F901F9005
:1000D00018951BB888E98AB986E08093950010923C
:1000E000900087E689B908955D9BFECF8CB908958D
:1000F000FF920F931F93CF93DF936115710581F0EA
:10010000F82E8B01C0E0D0E08F2DEEDF9091010141
:100110009923E1F3109201012196C017D107A1F7AD
:10012000DF91CF911F910F91FF900895F894D1DF47
:1001300011BA789468E070E081E3DADF8FEF82BB78
:06014000FFCFF894FFCF91
:00000001FF
